:100000000C948108189518951895189518951895B9
:100010001895189518951895189518950C948507A6
:100020001895189518951895189518951895189568
:100030001895189518951895189518951895189558
:100040001895189518951895189518951895189548
:10005000189518952D00F4020D00EC02F402F4023C
:100060009C02A402AC02B402BC02C402CC02D402C0
:10007000DC02E402000000AC040A0007035903D0CC
:10008000034B04590467047504830491049F04001E
:100090003E9A379A329A319A0895202F17B1107FDD
:1000A000022F0770102B17B9369A3699FECF04B17C
:1000B00015B10895602F0024112430E03A3030F457
:1000C000062FEBDF000E111E3395F8CF4AE050E00B
:1000D00080010E949D08089505E011E01A930A939B
:1000E00008EE13E020E030E040E050E060E070E037
:1000F0000E942407089525970091C202102F13959E
:100100001093C2020B3008F46AC000E00093C202F0
:100110000091C102002329F50091C10210E043E0E3
:1001200050E00E949508F801E554FD4F018110E070
:100130001A930A930091C10210E043E050E00E943C
:100140009508F801E554FD4F008110E01A930A93D9
:1001500020E832E08E010C5F1F4F0E948E0A249629
:1001600024C00091C10210E043E050E00E949508D5
:10017000F801E554FD4F028110E01A930A930091B3
:10018000C10210E043E050E00E949508F801E554F8
:10019000FD4F018110E01A930A9320E832E08E01AE
:1001A0000C5F1F4F0E948E0A249620E08E010E9451
:1001B0007D02E3ECF2E0008111811A930A9300E0E2
:1001C00018E020E030E040E050E060E070E00E94A5
:1001D000C601E3ECF2E0008111E0012700832596DF
:1001E0000895202F212B69F021E02093C10220E007
:1001F0002093BE0220E02093BF0220E02093C002A3
:10020000089520E02093C102089520E0223008F0F4
:100210006CC0022F10E043E050E00E949508F80106
:10022000E554FD4F028103950283022F10E043E065
:1002300050E00E949508F801E554FD4F02810C330F
:1002400008F451C0022F10E043E050E00E949508EE
:10025000F801E554FD4F00E00283022F10E043E077
:1002600050E00E949508F801E554FD4F0181039587
:100270000183022F10E043E050E00E949508F8014E
:10028000E554FD4F01810C3370F1022F10E043E083
:1002900050E00E949508F801E554FD4F00E001830D
:1002A000022F10E043E050E00E949508F801E55469
:1002B000FD4F008103950083022F10E043E050E0E2
:1002C0000E949508F801E554FD4F0181093158F06D
:1002D000022F10E043E050E00E949508F801E55439
:1002E000FD4F00E00083239591CF0895102F012F3B
:1002F0000A95112341F02FEC37E021503040E9F707
:1003000000C00000F3CF089504B7006804BF04B72D
:10031000006804BF0895F8DFA79AAF98D49ADC98D4
:10032000D09AD89AB89AC0980895B99AC198BA9AAA
:10033000C298BB9AC3988A9A9298899A9198889AF7
:100340009098BF9AC798BE9AC698BD9AC598BC9A0D
:10035000C498A19AA99AA09AA89A8F9A979A8E9AC5
:10036000969A8D9A959A8C9A949A8B9A939A0DEF65
:1003700012E01A930A9301E010E020E030E040E040
:1003800050E060E070E00E94240708950E94160982
:100390006097088719872A873B874C875D876E8718
:1003A0007F87A8A1B9A10024112422243324442446
:1003B000552466247724E8E9F2E00E94350A08F023
:1003C00098C080019101C801088519852A853B855F
:1003D0004C855D856E857F850E94E509017000234F
:1003E00009F476C00A2F0B2BB1F180019101C801ED
:1003F0009924AA24BB24CC24DD24EE24FF248824C1
:10040000839484019501A601B7010E94D90908834C
:1004100019832A833B834C835D836E837F83E5EC62
:10042000F2E080809180A280B380C480D580E68095
:10043000F780FE0184019501A601B7010E94020A1E
:10044000E5ECF2E0008311832283338344835583F8
:10045000668377833DC080019101C8019924AA2455
:10046000BB24CC24DD24EE24FF248824839484013F
:100470009501A601B7010E94D90900951095209514
:1004800030954095509560957095088319832A831F
:100490003B834C835D836E837F83E5ECF2E0808059
:1004A0009180A280B380C480D580E680F780FE0171
:1004B00084019501A601B7010E94F109E5ECF2E083
:1004C0000083118322833383448355836683778338
:1004D00001E0000E00E0101E00E0201E00E0301ED3
:1004E00000E0401E00E0501E00E0601E00E0701EB4
:1004F00062CF6096E2E10C9427090E942309C801AB
:10050000A22FAA2341F444E050E09C0101E912E04B
:100510000E94580A07C043E050E09C0105E912E040
:100520000E94580AE3E00C9434098A93802F082F24
:10053000E4E5F0E00C94D608A998A89897989698C6
:1005400095989498939A57C0A99AA8989798969A2C
:10055000959A949A939A4FC0A998A898979A969822
:100560009598949A939847C0A998A8989798969820
:10057000959A949A93983FC0A99AA8989798969A12
:10058000959A9498939837C0A998A89A979896980E
:10059000959A949893982FC0A998A89A9798969806
:1005A00095989498939827C0A998A8989798969A00
:1005B000959A949A939A1FC0A998A89897989698F4
:1005C00095989498939817C0A998A89897989698F2
:1005D000959A949893980FC0A99AA89A979A969AE0
:1005E000959A949A939807C0A99AA89A979A969AD6
:1005F000959A949A939A899108950E942209EDEC14
:10060000F2E000811181E4E7F0E00C94DA08E5EC17
:10061000F2E000811181228133814481558166811C
:100620007781017010702070307040705070607071
:100630007070E9E8F2E00E94130A11F0969801C088
:10064000969AE5ECF2E000811181228133814481A8
:1006500055816681778101FF02C0A99801C0A99ADE
:10066000E5ECF2E0008111812281338144815581E2
:100670006681778102FF02C0A89801C0A89AE5ECC4
:10068000F2E00081118122813381448155816681AC
:10069000778103FF02C0979801C0979AC19AC298C8
:1006A000C398929891989098C798C698C598C498FE
:1006B00053C1E5ECF2E00081118122813381448154
:1006C00055816681778104FF02C0959801C0959A93
:1006D000E5ECF2E000811181228133814481558172
:1006E0006681778105FF02C0949801C0949AE5EC79
:1006F000F2E000811181228133814481558166813C
:10070000778106FF02C0939801C0939AE5ECF2E06E
:1007100000811181228133814481558166817781F5
:1007200007FF02C0A89801C0A89AE5ECF2E000819A
:100730001181228133814481558166817781012F26
:1007400000FF02C0979801C0979AE5ECF2E00081A3
:100750001181228133814481558166817781012F06
:1007600001FF02C0969801C0969AE5ECF2E0008184
:100770001181228133814481558166817781012FE6
:1007800002FF02C0A99801C0A99AC198C29AC39851
:10079000929891989098C798C698C598C498DCC0CC
:1007A000E5ECF2E0008111812281338144815581A1
:1007B00066817781012F03FF02C0959801C0959A49
:1007C000E5ECF2E000811181228133814481558181
:1007D00066817781012F04FF02C0949801C0949A2A
:1007E000E5ECF2E000811181228133814481558161
:1007F00066817781012F05FF02C0939801C0939A0B
:10080000E5ECF2E000811181228133814481558140
:1008100066817781012F06FF02C0A99801C0A99ABD
:10082000E5ECF2E000811181228133814481558120
:1008300066817781012F07FF02C0A89801C0A89A9E
:10084000E5ECF2E000811181228133814481558100
:1008500066817781022F00FF02C0979801C0979AA6
:10086000E5ECF2E0008111812281338144815581E0
:1008700066817781022F01FF02C0969801C0969A87
:10088000C198C298C39A929891989098C798C69820
:10089000C598C49861C00091910247DEC198C29882
:1008A000C398929A91989098C798C698C598C498FA
:1008B00053C00091920239DEC198C298C3989298B1
:1008C000919A9098C798C698C598C49845C00091C9
:1008D00093022BDEC198C298C39892989198909AEF
:1008E000C798C698C598C49837C0009194021DDE79
:1008F000C198C298C398929891989098C79AC698B0
:10090000C598C49829C0009195020FDEC198C2987D
:10091000C398929891989098C798C69AC598C49889
:100920001BC00091960201DEC198C298C3989298AC
:1009300091989098C798C698C59AC4980DC0009190
:100940009702F3DDC198C298C398929891989098B5
:10095000C798C698C598C49AADECB2E0ED91FC91E9
:1009600011973A974CF4EDECF2E0008111810F5FA2
:100970001F4F0083118306C0EDECF2E000E000831E
:1009800000E00183E4E00C9433090E948B010E9493
:10099000DF040E9448000E9414050E9495010E94F5
:1009A0000B070E946C000E9486060E947B000E943A
:1009B00095060E94470504E60E947601F6CFD19A7B
:1009C000D998A39AAB9AA29AAA98A19AA998A09A00
:1009D000A8980895102F105039F01A9551F01A95D3
:1009E000C1F01A95D9F00895122F10FDD99A10FF71
:1009F000D998122F132B11F411E001C010E0412FF0
:100A000040FDAB9A40FFAB98122F10FDAA9A10FF41
:100A1000AA98122F10FDA99A10FFA998122F10FD65
:100A2000A89A10FFA898089508959A938A9305E0CC
:100A30000E945A00C80102E00E945A0098018C32BC
:100A400001E0900710F401E01FC0843F01E090072F
:100A500010F402E019C0803203E0900710F403E0C4
:100A600013C02C3201E0300710F404E00DC0243F25
:100A700001E0300710F405E007C0203203E0300742
:100A800010F406E001C000E08991999108958A93DD
:100A90000091CF02102F13951093CF020B3008F462
:100AA000C2C000E00093CF02C0DF802F0091D202CD
:100AB000801709F4B8C08093D202082F025061F069
:100AC0000A9539F10A9509F442C00A9509F45DC006
:100AD0000A9509F478C0A7C0E0EAF2E0008111812C
:100AE0000E94F100E0EAF2E0008111811A930A937A
:100AF00000E110E020E030E040E050E060E070E035
:100B00000E94C601E0EAF2E0008111E001270083C3
:100B10008AC0E2EAF2E02081318100E00E94EA042A
:100B2000E2EAF2E0008111811A930A9300E210E0F8
:100B300020E030E040E050E060E070E00E94C6015C
:100B4000E2EAF2E0008111E0012700836CC0E4EAF0
:100B5000F2E02081318101E00E94EA04E4EAF2E05F
:100B6000008111811A930A9300E012E020E030E046
:100B700040E050E060E070E00E94C601E4EAF2E08C
:100B8000008111E0012700834EC0E6EAF2E02081F7
:100B9000318102E00E94EA04E6EAF2E0008111817C
:100BA0001A930A9300E811E020E030E040E050E0C2
:100BB00060E070E00E94C601E6EAF2E0008111E028
:100BC0000127008330C0E0EDF2E0008111E0012751
:100BD0000083E0EDF2E02081318103E00E94EA042D
:100BE000E0EDF2E000811181012B79F400E010E0EA
:100BF0001A930A9300E010EC23E030E040E050E06C
:100C000060E070E00E94C6010EC001E010E01A939F
:100C10000A9300E010E420E030E040E050E060E0C3
:100C200070E00E94C601E0EDF2E000811181012B2D
:100C300009F46AC00091D30203950093D302009196
:100C4000D3020130E9F400E010E01A930A9300E0C7
:100C500010E023E030E040E050E060E070E00E940F
:100C6000C60101E010E01A930A9300E010E820E0CA
:100C700030E040E050E060E070E00E94C60144C017
:100C80000091D3020230E9F400E010E01A930A93D5
:100C900000E010E822E030E040E050E060E070E08A
:100CA0000E94C60101E010E01A930A9300E010E0F0
:100CB00021E030E040E050E060E070E00E94C601DA
:100CC00023C00091D3020330F9F400E010E01A933E
:100CD0000A9300E010E821E030E040E050E060E0FE
:100CE00070E00E94C60101E010E01A930A9300E050
:100CF00010E022E030E040E050E060E070E00E9470
:100D0000C60100E00093D3028991089501E010E04C
:100D10001A930A9300E014E020E030E040E050E055
:100D200060E070E00E94C60108959A938A93249728
:100D30000091D402102F13951093D4020B30F8F0C9
:100D400000E00093D40203E00E945A00C80129E4A5
:100D500030E04AE050E08C010E949D08C901801BF0
:100D6000910B9A938A9328EA32E08E010E5F1F4F0F
:100D70000E948E0A229621E08E010E947D02249616
:100D80008991999108950E9416096897088B198B8B
:100D90002A8B3B8B4C8B5D8B6E8B7F8B00E012E143
:100DA0002AE730E040E050E060E070E0088319831B
:100DB0002A833B834C835D836E837F8300E4802E94
:100DC0009924AA24BB24CC24DD24EE24FF24DE01B4
:100DD000509684019501A601B7010E943C0908873D
:100DE00019872A873B874C875D876E877F870880B6
:100DF00019802A803B804C805D806E807F80DE0180
:100E0000189680019101A201B3010E9478096896A9
:100E1000E0E10C9427090EB508600EBD0EB5026026
:100E20000EBD0EB501600EBD08EE13E020E030E00F
:100E300040E050E060E070E0A6DF1BBD0ABD09B7EE
:100E4000006109BF789408950E941609480159016C
:100E50006A017B01288939890091D502083008F0A0
:100E60004FC0F8940091D50210E043E150E00E9499
:100E70009508F801EB52FD4F00E0028300E0038388
:100E800000E0048300E0058300E0068300E00783C0
:100E900000E0008700E001870091D50210E043E107
:100EA00050E00E949508F801EB52FD4F8286938630
:100EB000A486B586C686D786E08AF18A0091D502D7
:100EC00010E043E150E00E949508F801EB52FD4F1D
:100ED000228B338B0091D50210E043E150E00E9459
:100EE0009508F801EB52FD4F01E001830091D50216
:100EF00003950093D50278940091D5020A9502C01B
:100F000078940FEFE2E10C942709FA92EA92DA92D0
:100F1000CA92BA92AA929A928A92AA939A938A931E
:100F2000FA93EA933A922A921A920A927A936A93DD
:100F30005A934A933A932A931A930A939FB7A0E03D
:100F40000091D502A01708F0BFC00A2F10E043E1BE
:100F500050E00E949508F801EB52FD4F01810023FB
:100F600009F4B0C00A2F10E043E150E00E94950858
:100F7000F801EB52FD4F02811381248135814681B6
:100F8000578160857185EDEAF2E00E94130A71F1E4
:100F90000A2F10E043E150E00E949508F801EB525F
:100FA000FD4F0281138124813581468157816085FF
:100FB00071850F5F1F4F2F4F3F4F4F4F5F4F6F4F49
:100FC0007F4F480159016A017B010A2F10E043E17C
:100FD00050E00E949508F801EB52FD4F8282938207
:100FE000A482B582C682D782E086F1860A2F10E0FD
:100FF00043E150E00E949508F801EB52FD4F028555
:101000001385248535854685578560897189E9E88A
:10101000F2E00E94130A09F455C00A2F10E043E1E0
:1010200050E00E949508F801EB52FD4F2289338968
:1010300000E010E02017310709F444C00A2F10E047
:1010400043E150E00E949508F801EB52FD4F828089
:101050009380A480B580C680D780E084F184EFEDD2
:10106000F2E00A2F10E043E150E00E949508E00F03
:10107000F11F0E94240A30F10A2F10E043E150E0F2
:101080000E949508F801EB52FD4F00E0028300E05A
:10109000038300E0048300E0058300E0068300E0B2
:1010A000078300E0008700E001870A2F10E043E19A
:1010B00050E00E949508F801EB52FD4F0289138918
:1010C000F8010995A3953CCF9FBF099119912991EA
:1010D0003991499159916991799109901990299083
:1010E0003990E991F99189919991A9918990999073
:1010F000A990B990C990D990E990F99018950C945D
:10110000D70D0FE70DBF02E00EBFC0E6D2E00E9490
:10111000460A002311F00E94740A0E94C5040E942E
:1011200093080C947F080C947F08149F102D059F42
:10113000100D049F002D110D089500241124E0E1ED
:10114000001F111FEA9542F0001C111C0416150621
:10115000B8F3041A150AF4CFA0010095109508956C
:10116000002411241001E0E2001F111F221F331F71
:10117000EA9572F0001C111C221C331C0416150683
:101180002606370688F3041A150A260A370AECCF12
:10119000A001B101009510952095309508955591C5
:1011A0004591159011FA259035900895F9DF041BAB
:1011B00010E003C0F4DF041B150B20E030E000C09A
:1011C000B8F010FC17C045910590E00FF11F04170F
:1011D000100540E02407340758F436F40491002445
:1011E000F101E01BF0090994E00FF11F2590359003
:1011F000F101099411F4D6F7F1CF31960EF0319642
:1012000050E060E070E045914B3F48F089F34F3F7C
:1012100029F04E3F11F07591659155914591041B50
:10122000150B260B370B39F318F3E7CFFA92EA9236
:10123000DA92CA92BA92AA929A928A927A926A920E
:101240005A924A92BA93AA939A938A930895FF84E2
:10125000EE84DD84CC84BB84AA84998488847F80D6
:101260006E805D804C80BB81AA8199818881F0E08D
:10127000EC0FFD1FEF0108958A939A934A925A92B8
:101280006A92AA93BA930024112410012001F0015C
:1012900088E06D9098E0662049F4762F652F542FF2
:1012A000432F322F212F102F002714C0669440F4B3
:1012B000000E111E221E331E441E551EE61FF71F70
:1012C000000F111F221F331F441F551F661F771F5A
:1012D0009A9561F78A95E9F680019101A201BF0113
:1012E000B991A991699059904990999189910895DE
:1012F00002D02DD00EC04A928A939A93AA93BA93A1
:101300008D914D90ED91FD910D901D902D903C9003
:1013100008950991199129913991499159916991AA
:101320007991001F111F221F331F441F551F661F75
:10133000771F0095109520953095409550956095B4
:101340007095B991A99199918991499008950F93B8
:101350001F932F933F934F935F936F937F93002738
:1013600011279801A801B801B7E0A8E09F91AA95BC
:10137000DAF0991F001F111F221F331F441F551F32
:10138000661F771F081714052E073F0740055105F4
:101390006205730560F3081B14092E0B3F0B40090F
:1013A000510962097309E3CF9A93A8E0BA95EAF666
:1013B00008958A954AF0000F111F221F331F441F02
:1013C000551F661F771FF5CF08958A954AF07695C9
:1013D0006795579547953795279517950795F5CFB5
:1013E00008958081082381811823828128238381A5
:1013F0003823848148238581582386816823878107
:10140000782308958081082B8181182B8281282BD5
:101410008381382B8481482B8581582B8681682BCA
:101420008781782B08958081081781811807828130
:10143000280783813807848148078581580786817A
:1014400068078781780708958081881681819806CA
:101450008281A8068381B8068481C8068581D80662
:101460008681E8068781F8060895808108168181C3
:101470001806828128068381380684814806858182
:1014800058068681680687817806089501E00895E8
:1014900004C00F5F1F4F41505040342F352B29F0AF
:1014A000F80130813217A9F7089500E010E008959F
:1014B0007B2F0A2ED80106C0F90161919F016D931F
:1014C00041505040642F652BB9F7A02DB72F0895D8
:1014D00020E02D9301501040E1F7089525912D93C0
:1014E00001501040D9F7089580EB9BE1FC01059174
:1014F0001491FC013296A591B491FC01349625918A
:101500003491422F432B19F0F901E8DF01C0E0DFED
:1015100006961BE18C3B910748F308950E9422092F
:101520002497C8018E01085F1F4F0A831B8388839D
:101530009983BE016E5F7F4FA9019E0109EC1DE0FA
:101540000E94680BE881F98120E02083112322F0BA
:1015500008811981081B190B2496E4E00C943309C7
:10156000F8013191321729F08F013323C9F700E0D8
:1015700010E00895F80101C0319620812223E1F79F
:10158000E01BF10B8F0108950E9417094801E22E1C
:10159000F801C084D1842F3611F408E007C0022F6F
:1015A0000062083711F00AE001C000E1A02E88E1D6
:1015B00090E04080518062807381772E243611F054
:1015C000293659F477234AF45094609470950FEFBC
:1015D0004194500A600A7F4F772E042D0529062971
:1015E000072979F402891389012B59F40A2D08304F
:1015F000A9F5068903FF32C087E1F60100E3078BF6
:101600002DC001975DD0405D242F4A3320F00E2D70
:101610000155400F242F8601080F191FD801F8012A
:1016200020834ED028013901012B022B032B31F0EE
:10163000F401068117810A171B0718F30A2D0830D9
:1016400069F4F401068903FF09C00C91003331F0FD
:101650000197F601E80FF91F00E3008308E110E0AD
:10166000081B190BF40104871587C80ED91EC68202
:10167000D782228933890217130744F4201B310BC8
:101680002687378706890F7E068B17C03323AAF477
:1016900026892471203189F48489958922853385AE
:1016A000821B930B26853785821B930BB4D1813027
:1016B00000E0900714F086879787EFE00C942809E4
:1016C0004A2D50E060E070E0820193010C94B00874
:1016D0002CD2E1973801DA012B012C833D8300E005
:1016E000088B098B0C91002319F40889198969C1A9
:1016F000053251F400E00A870B870C870D870E87AF
:101700000F8720E030E006C04D919E013ED252F797
:1017100056C1216011960C91102F1052D1F3135025
:1017200059F0185029F0125029F0135039F008C020
:101730002260F0CF2460EECF2860ECCF2061EACFAA
:101740000A3271F47BD10C8B1D8B11233AF40C8976
:101750001195019510400C8B1D8B246011960FC0C4
:101760003C8B3D8B0AC00C891D890F3F4FE7140746
:1017700019F071D10C8B1D8B11963AD1A0F30C91FD
:101780000E3221F00FEF0A8B0B8B18C011960C91C3
:101790000A3229F453D10A8B1B8B11960FC03A8B56
:1017A0003B8B0AC00A891B890F3F4FE7140719F0CA
:1017B00052D10A8B1B8B11961BD1A0F32E8B3F8B22
:1017C0002C9105EB12E00E94B00A012B11F00D9153
:1017D00001C000E0088F083631F40C91083619F486
:1017E00002E6088F119600D1088719878D91082F7E
:1017F0000552B9F0035309F443C00B5009F4A9C0D2
:101800000A9509F482C0055009F47FC00650C1F161
:101810000A9559F1035041F0025091F1035081F1C2
:101820009EC0FCD005E299C0EFD00ED10E831F837D
:101830001B8911232AF40E811F810E94BA0A12C04B
:101840004A89512F20E030E00E811F810E94480A12
:10185000202F212B29F02E813F81021B130B02C068
:101860000A891B890C871D8782C0C7D0EFD00883E7
:1018700019832A832B83B8D00E831F8328E766C081
:10188000088D0C3619F4B9D02C5F08C0013711F45B
:10189000B4D003C00A36B1D031F4285FB8D0D4D068
:1018A0002281338102C0D2D030E099D020E0488D2F
:1018B000483651F0488D423619F40883298306C012
:1018C000443711F04A3721F4088319832A832B8384
:1018D0000E8903FF33C0088119812A813B81012BC6
:1018E000022B032B59F1082F0062083739F52A859E
:1018F0003B856BD000E300832F5F3F4F89010F5F73
:101900001F4F8ED062D0808319C09201088DACD059
:1019100066D033231AF45ED00DE20AC00E8901FFAF
:1019200003C058D00BE204C000FF08C053D000E24F
:1019300000830A851B850F5F1F4F72D055D02A8503
:101940003B85020F131F0E831F83282F8E011CDE81
:101950000EC064D059D0F8010081098F08C05ED054
:1019600005E2098F882319F002E05AD08A8F8C890A
:101970009D890A851B854FD00E851F854CD00C850F
:101980001D8549D00E8902FD02C052D0C1F06A8582
:101990007B85AE01475E5F4F46D089F460E34E859C
:1019A0005F8548D061F06C857D854E815F813BD03D
:1019B00031F40E8902FF96CE3BD009F093CE0FEFA3
:1019C0001FEFE196E8E00C942F09FE017996E20FF3
:1019D000F31F0895FE0179962A853B85F8CF088389
:1019E00019832A833B8308958E01075E1F4F089554
:1019F0006C91062F00530A30089502D09801089583
:101A0000F201008111810895FBDF98012E5F3F4FA5
:101A1000208331830895801B910B089501E010E02D
:101A20000A871B8708959E0183019ED0012B08958C
:101A300060E2AC019E0183015FD0F8CFE1DFA80135
:101A40004E5F5F4F40835183F801DBCFDFDFF8014A
:101A5000D8DF20E008954AE050E00E949508060F84
:101A6000131F0053104008950D010256F1F0065067
:101A700049F1045029F0085029F1065071F022C0B4
:101A80002CD00C5F2FD01D912D913C91432F440FF2
:101A9000440B542F642F742F1EC029D020E030E057
:101AA00040E050E060E070E016C017D00E5F1AD042
:101AB000102F110F110B212F312F412F512F612F7B
:101AC000712F09C014D0212F220F220B322F422F49
:101AD000522F622F722FD0010895F901A081B18198
:101AE0008D0108951F4F008311830D910895F5DF37
:101AF0000E5FF8DF1C91089518D021976883380194
:101B00002901DA0180E090E001C001968A179B0765
:101B100044F461E070E0AE01920186DFB1F300E0D1
:101B200001C001E010E021964DCF0C941E09BA933C
:101B3000AA93F801D901242F14960D911C911597A1
:101B40000995FD0104831583012B49F00089118952
:101B50000F5F1F4F008B118B00E010E002C00FEFF2
:101B60001FEFA991B9910895E0DF38012901DA0149
:101B7000CB0100E010E001C00197282F292B21F0B4
:101B80004D91920102D0C2F71DCF8301D0DF112306
:101B900008953B2F6A2FF801A081B181AD014F5FFD
:101BA0005F4F408351832C93A62FB32F0895FFCF0F
:101BB0003B008002BC1BB300BB0200002530326436
:101BC000253032640000000000000000003030309A
:101BD0003030303040000000000000000100010003
:101BE000010001002530336400FFFFFFFFFFFFFF0E
:071BF000FF686C747A4C00E1
:00110201EC
:00000001FF
